:020000040000FA
:0400000044EF3CF09D
:1077EE001200616263646566670A686A6B6C6D6E2F
:1077FE006F000E6E000E0B6E010E0A6E0E502BEC0D
:10780E003DF0000E026E500E016EF7EC3BF01200D2
:10781E000E6E000E0B6E000E0A6E0E502BEC3DF02F
:10782E00000E026E020E016E81EC3CF012000C6E28
:10783E000CC007F0086AD9EC3CF0000E026E1D0E6B
:10784E00016E0AC003F00BC004F0B2EC3DF0B8ECD0
:10785E003CF0120020EE23F010EE13F00F0EDBCFF3
:10786E00E3FFE806FCE2130E0F6E000E106E00EC46
:10787E003DF040EF3CF000EF00F0F00EF66E770EAC
:10788E00F76E000EF86E00EE23F010EE10F0090009
:10789E00F5CFEEFFE550E150FAE1000131EF3CF09B
:1078AE00000E026E080E016E000E046E010E036EC7
:1078BE00B2EC3DF0000E026E080E016E000E046E6C
:1078CE00000E036EB2EC3DF01200000E026E1F0EA3
:1078DE00016E000E046E010E036EB2EC3DF0000E52
:1078EE00026E1F0E016E000E046E000E036EB2ECE1
:1078FE003DF01200000E056E000E046E89EF3CF096
:10790E00044A052A0150045C0550800A036E025099
:10791E00800A0358D8A096EF3CF098EF3CF087EF22
:10792E003CF01200000E026E1F0E016E000E046E71
:10793E00000E036ED9EC3EF0000E026E080E016EC4
:10794E00000E046E000E036ED9EC3EF0000E026EB9
:10795E001E0E016E000E046E000E036ED9EC3EF08C
:10796E001200000E026E1C0E016E000E046E010E51
:10797E00036EB2EC3DF0000E026E050E016EF7ECDA
:10798E003BF0000E026E1C0E016E000E046E000E19
:10799E00036EB2EC3DF0000E026E050E016EF7ECBA
:1079AE003BF01200000E026E080E016E000E046E09
:1079BE00000E036EB2EC3DF0000E096E000E026E6C
:1079CE001E0E016E800E0714036E046AB2EC3DF0BB
:1079DE0057EC3CF0D89007360836092A070E096492
:1079EE00FBEF3CF0FDEF3CF0E5EF3CF06CEC3CF0D7
:1079FE00120058EC3DF0000E126E12500F24D96E8C
:107A0E00000E1020DA6E0A0EDE18D8A411EF3DF02B
:107A1E0013EF3DF018EF3DF0C00E0FEC3CF021EFF0
:107A2E003DF012500F24D96E000E1020DA6EDF508A
:107A3E0000EC3CF0122A0E0E126428EF3DF02AEFF5
:107A4E003DF004EF3DF012000D6E0DC00CF00C3A3F
:107A5E000F0E0C160C50076E086AD9EC3CF0000E97
:107A6E00026E1D0E016E0AC003F00BC004F0B2ECE4
:107A7E003DF0B8EC3CF00DC00CF00F0E0C160C5097
:107A8E00076E086AD9EC3CF0000E026E1D0E016EF8
:107A9E000AC003F00BC004F0B2EC3DF0B8EC3CF0C1
:107AAE001200000E026E1C0E016E000E046E000E11
:107ABE00036ED9EC3EF0000E026E1D0E016E000E2E
:107ACE00046E000E036ED9EC3EF099EC3CF0000E05
:107ADE00026E0F0E016E81EC3CF0000E0B6E000E6E
:107AEE000A6E030E1EEC3CF0000E026E050E016EC9
:107AFE0081EC3CF0000E0B6E000E0A6E030E1EECB7
:107B0E003CF0000E026EA00E016EF7EC3BF0000E84
:107B1E000B6E000E0A6E030E1EEC3CF0000E026E93
:107B2E00A00E016EF7EC3BF0000E0B6E000E0A6E0F
:107B3E00020E1EEC3CF0000E026E0A0E016E81EC7F
:107B4E003CF0280E0FEC3CF00C0E0FEC3CF0010E4E
:107B5E000FEC3CF0120002BEC0EF3DF0025007E108
:107B6E00080E015CD8B0BEEF3DF0C0EF3DF0EAEF7D
:107B7E003DF003500410D8B4C7EF3DF0C9EF3DF00F
:107B8E00D9EF3DF001C005F0010E066E052AD2EFC9
:107B9E003DF0D8900636052ED0EF3DF006508012FF
:107BAE00D8EF3EF001C005F0010E066E052AE2EF99
:107BBE003DF0D8900636052EE0EF3DF00650FF0A58
:107BCE008016D8EF3EF002BEF8EF3DF0025007E10E
:107BDE00100E015CD8B0F6EF3DF0F8EF3DF026EF59
:107BEE003EF0F80E0126FF0E022203500410D8B408
:107BFE0003EF3EF005EF3EF015EF3EF001C005F04D
:107C0E00010E066E052A0EEF3EF0D8900636052EB2
:107C1E000CEF3EF006508112D8EF3EF001C005F099
:107C2E00010E066E052A1EEF3EF0D8900636052E82
:107C3E001CEF3EF00650FF0A8116D8EF3EF002BE52
:107C4E0034EF3EF0025007E1180E015CD8B032EF6F
:107C5E003EF034EF3EF062EF3EF0F00E0126FF0EE6
:107C6E00022203500410D8B43FEF3EF041EF3EF035
:107C7E0051EF3EF001C005F0010E066E052A4AEFE7
:107C8E003EF0D8900636052E48EF3EF00650821292
:107C9E00D8EF3EF001C005F0010E066E052A5AEF30
:107CAE003EF0D8900636052E58EF3EF00650FF0AED
:107CBE008216D8EF3EF002BE70EF3EF0025007E1A2
:107CCE00200E015CD8B06EEF3EF070EF3EF09EEFEE
:107CDE003EF0E80E0126FF0E022203500410D8B427
:107CEE007BEF3EF07DEF3EF08DEF3EF001C005F0F4
:107CFE00010E066E052A86EF3EF0D8900636052E4A
:107D0E0084EF3EF006508312D8EF3EF001C005F02E
:107D1E00010E066E052A96EF3EF0D8900636052E19
:107D2E0094EF3EF00650FF0A8316D8EF3EF002BEE7
:107D3E00ACEF3EF0025007E1280E015CD8B0AAEF7E
:107D4E003EF0ACEF3EF0D8EF3EF0E00E0126FF0E17
:107D5E00022203500410D8B4B7EF3EF0B9EF3EF054
:107D6E00C9EF3EF001C005F0010E066E052AC2EF06
:107D7E003EF0D8900636052EC0EF3EF00650841227
:107D8E00D8EF3EF001C005F0010E066E052AD2EFC7
:107D9E003EF0D8900636052ED0EF3EF00650FF0A84
:107DAE008416120002BEE7EF3EF0025007E1080E05
:107DBE00015CD8B0E5EF3EF0E7EF3EF011EF3FF09B
:107DCE0003500410D8B4EEEF3EF0F0EF3EF000EFAB
:107DDE003FF001C005F0010E066E052AF9EF3EF0E8
:107DEE00D8900636052EF7EF3EF006509212FFEFB2
:107DFE003FF001C005F0010E066E052A09EF3FF0B7
:107E0E00D8900636052E07EF3FF00650FF0A921661
:107E1E00FFEF3FF002BE1FEF3FF0025007E1100EE2
:107E2E00015CD8B01DEF3FF01FEF3FF04DEF3FF07C
:107E3E0003500410D8B426EF3FF028EF3FF03AEF8E
:107E4E003FF001C005F0F80E0526010E066E052A5C
:107E5E0033EF3FF0D8900636052E31EF3FF0065047
:107E6E009312FFEF3FF001C005F0F80E0526010E4C
:107E7E00066E052A45EF3FF0D8900636052E43EFE5
:107E8E003FF00650FF0A9316FFEF3FF002BE5BEF86
:107E9E003FF0025007E1180E015CD8B059EF3FF0E9
:107EAE005BEF3FF089EF3FF003500410D8B462EF60
:107EBE003FF064EF3FF076EF3FF001C005F0F00EBB
:107ECE000526010E066E052A6FEF3FF0D890063696
:107EDE00052E6DEF3FF006509412FFEF3FF001C0FC
:107EEE0005F0F00E0526010E066E052A81EF3FF015
:107EFE00D8900636052E7FEF3FF00650FF0A9416F7
:107F0E00FFEF3FF002BE97EF3FF0025007E1200E69
:107F1E00015CD8B095EF3FF097EF3FF0C5EF3FF023
:107F2E0003500410D8B49EEF3FF0A0EF3FF0B2EF35
:107F3E003FF001C005F0E80E0526010E066E052A7B
:107F4E00ABEF3FF0D8900636052EA9EF3FF0065066
:107F5E009512FFEF3FF001C005F0E80E0526010E69
:107F6E00066E052ABDEF3FF0D8900636052EBBEF04
:107F7E003FF00650FF0A9516FFEF3FF002BED3EF1B
:107F8E003FF0025007E1280E015CD8B0D1EF3FF070
:107F9E00D3EF3FF0FFEF3FF003500410D8B4DAEF09
:107FAE003FF0DCEF3FF0EEEF3FF001C005F0E00EEA
:107FBE000526010E066E052AE7EF3FF0D89006362D
:107FCE00052EE5EF3FF006509612FFEF3FF001C091
:107FDE0005F0E00E0526010E066E052AF9EF3FF0BC
:107FEE00D8900636052EF7EF3FF00650FF0A96168C
:027FFE0012006F
:020000040020DA
:08000000FFFFFFFFFFFFFFFF00
:020000040030CA
:0E000000FF027100FF8380FF0FC00FE00F4072
:00000001FF
