:020000040000FA
:040000009DEF3FF041
:107F3A000001A0EF3FF0000E956E000E836E020E58
:107F4A00836E280EBBEC3FF0000E836E030E836E29
:107F5A00050EBBEC3FF0000E836E010E836E320EEF
:107F6A00BBEC3FF0A4EF3FF000EF00F0066E000E0E
:107F7A00056E000E046EEDEF3FF0000E076E000E68
:107F8A00086E280E0864CCEF3FF0CEEF3FF0D0EF3A
:107F9A003FF0E2EF3FF0000E096E020E0964D8EFDF
:107FAA003FF0DAEF3FF0DCEF3FF0DFEF3FF0092A76
:107FBA00D2EF3FF0082AC6EF3FF0072A630E0764A4
:107FCA00E9EF3FF0EBEF3FF0C4EF3FF0044A052A38
:107FDA000650016E026A0150045C0550800A036E65
:107FEA000250800A0358D8A0FDEF3FF0FFEF3FF0A0
:067FFA00C2EF3FF012008F
:020000040020DA
:08000000FFFFFFFFFFFFFFFF00
:020000040030CA
:0E000000FF027100FF8380FF0FC00FE00F4072
:00000001FF
